{
  "_format": "hh-sol-artifact-1",
  "contractName": "PongTournament",
  "sourceName": "contracts/PongTournament.sol",
  "abi": [
    {
      "inputs": [],
      "stateMutability": "payable",
      "type": "constructor"
    },
    {
      "anonymous": false,
      "inputs": [
        {
          "indexed": false,
          "internalType": "uint256",
          "name": "matchId",
          "type": "uint256"
        }
      ],
      "name": "MatchResultRecorded",
      "type": "event"
    },
    {
      "anonymous": false,
      "inputs": [
        {
          "indexed": false,
          "internalType": "uint256",
          "name": "tournamentId",
          "type": "uint256"
        }
      ],
      "name": "TournamentCreated",
      "type": "event"
    },
    {
      "inputs": [
        {
          "internalType": "uint256",
          "name": "tournamentId",
          "type": "uint256"
        },
        {
          "internalType": "uint256[]",
          "name": "playersIds",
          "type": "uint256[]"
        }
      ],
      "name": "createTournament",
      "outputs": [],
      "stateMutability": "nonpayable",
      "type": "function"
    },
    {
      "inputs": [
        {
          "internalType": "uint256",
          "name": "matchId",
          "type": "uint256"
        }
      ],
      "name": "getMatch",
      "outputs": [
        {
          "components": [
            {
              "internalType": "uint256",
              "name": "matchId_",
              "type": "uint256"
            },
            {
              "internalType": "uint256",
              "name": "player1Id_",
              "type": "uint256"
            },
            {
              "internalType": "uint256",
              "name": "player2Id_",
              "type": "uint256"
            },
            {
              "internalType": "uint256",
              "name": "player1Score_",
              "type": "uint256"
            },
            {
              "internalType": "uint256",
              "name": "player2Score_",
              "type": "uint256"
            },
            {
              "internalType": "uint256",
              "name": "winnerId_",
              "type": "uint256"
            }
          ],
          "internalType": "struct PongTournament.Match",
          "name": "",
          "type": "tuple"
        }
      ],
      "stateMutability": "view",
      "type": "function"
    },
    {
      "inputs": [
        {
          "internalType": "uint256",
          "name": "playerId",
          "type": "uint256"
        }
      ],
      "name": "getPlayerTournaments",
      "outputs": [
        {
          "internalType": "uint256[]",
          "name": "",
          "type": "uint256[]"
        }
      ],
      "stateMutability": "view",
      "type": "function"
    },
    {
      "inputs": [
        {
          "internalType": "uint256",
          "name": "tournamentId",
          "type": "uint256"
        }
      ],
      "name": "getTournament",
      "outputs": [
        {
          "components": [
            {
              "internalType": "uint256",
              "name": "matchId_",
              "type": "uint256"
            },
            {
              "internalType": "uint256",
              "name": "player1Id_",
              "type": "uint256"
            },
            {
              "internalType": "uint256",
              "name": "player2Id_",
              "type": "uint256"
            },
            {
              "internalType": "uint256",
              "name": "player1Score_",
              "type": "uint256"
            },
            {
              "internalType": "uint256",
              "name": "player2Score_",
              "type": "uint256"
            },
            {
              "internalType": "uint256",
              "name": "winnerId_",
              "type": "uint256"
            }
          ],
          "internalType": "struct PongTournament.Match[]",
          "name": "",
          "type": "tuple[]"
        }
      ],
      "stateMutability": "view",
      "type": "function"
    },
    {
      "inputs": [],
      "name": "owner_",
      "outputs": [
        {
          "internalType": "address",
          "name": "",
          "type": "address"
        }
      ],
      "stateMutability": "view",
      "type": "function"
    },
    {
      "inputs": [
        {
          "internalType": "uint256",
          "name": "tournamentId",
          "type": "uint256"
        },
        {
          "internalType": "uint256",
          "name": "matchId",
          "type": "uint256"
        },
        {
          "internalType": "uint256",
          "name": "player1Id",
          "type": "uint256"
        },
        {
          "internalType": "uint256",
          "name": "player2Id",
          "type": "uint256"
        },
        {
          "internalType": "uint256",
          "name": "player1Score",
          "type": "uint256"
        },
        {
          "internalType": "uint256",
          "name": "player2Score",
          "type": "uint256"
        },
        {
          "internalType": "uint256",
          "name": "winnerId",
          "type": "uint256"
        }
      ],
      "name": "recordMatch",
      "outputs": [],
      "stateMutability": "nonpayable",
      "type": "function"
    }
  ],
  "bytecode": "0x60a06040523373ffffffffffffffffffffffffffffffffffffffff1660808173ffffffffffffffffffffffffffffffffffffffff1660601b8152505060805160601c6112fc61006760003960008181610347015281816106eb015261098a01526112fc6000f3fe608060405234801561001057600080fd5b50600436106100625760003560e01c80631a5bd7fc146100675780632dcf7dfa146100975780633d092b3d146100b35780633e44103c146100e3578063d62e5cf2146100ff578063e76630791461012f575b600080fd5b610081600480360381019061007c9190610a8d565b61014d565b60405161008e9190610f92565b60405180910390f35b6100b160048036038101906100ac9190610b0a565b610344565b005b6100cd60048036038101906100c89190610a8d565b61067f565b6040516100da91906110b6565b60405180910390f35b6100fd60048036038101906100f89190610ab6565b6106e8565b005b61011960048036038101906101149190610a8d565b61091d565b6040516101269190610fb4565b60405180910390f35b610137610988565b6040516101449190610f77565b60405180910390f35b606060008060008481526020019081526020016000206001018054806020026020016040519081016040528092919081815260200182805480156101b057602002820191906000526020600020905b81548152602001906001019080831161019c575b505050505090506000815190506000825167ffffffffffffffff811115610200577f4e487b7100000000000000000000000000000000000000000000000000000000600052604160045260246000fd5b60405190808252806020026020018201604052801561023957816020015b6102266109ac565b81526020019060019003908161021e5790505b50905060005b828110156103385760016000858381518110610284577f4e487b7100000000000000000000000000000000000000000000000000000000600052603260045260246000fd5b602002602001015181526020019081526020016000206040518060c0016040529081600082015481526020016001820154815260200160028201548152602001600382015481526020016004820154815260200160058201548152505082828151811061031a577f4e487b7100000000000000000000000000000000000000000000000000000000600052603260045260246000fd5b6020026020010181905250808061033090611208565b91505061023f565b50809350505050919050565b337f000000000000000000000000000000000000000000000000000000000000000073ffffffffffffffffffffffffffffffffffffffff168173ffffffffffffffffffffffffffffffffffffffff16146103d3576040517f08c379a00000000000000000000000000000000000000000000000000000000081526004016103ca90610ff6565b60405180910390fd5b60008060008a815260200190815260200160002090508881600001541461042f576040517f08c379a000000000000000000000000000000000000000000000000000000000815260040161042690610fd6565b60405180910390fd5b85871415610472576040517f08c379a000000000000000000000000000000000000000000000000000000000815260040161046990611036565b60405180910390fd5b80600201600088815260200190815260200160002060009054906101000a900460ff166104d4576040517f08c379a00000000000000000000000000000000000000000000000000000000081526004016104cb90611056565b60405180910390fd5b80600201600087815260200190815260200160002060009054906101000a900460ff16610536576040517f08c379a000000000000000000000000000000000000000000000000000000000815260040161052d90611016565b60405180910390fd5b8683148061054357508583145b610582576040517f08c379a000000000000000000000000000000000000000000000000000000000815260040161057990611076565b60405180910390fd5b6040518060c0016040528089815260200188815260200187815260200186815260200185815260200184815250600160008a8152602001908152602001600020600082015181600001556020820151816001015560408201518160020155606082015181600301556080820151816004015560a082015181600501559050506000808a81526020019081526020016000206001018890806001815401808255809150506001900390600052602060002001600090919091909150557fb7e7c5c64f61aa2b7a9c1e51578d554aa75426bf3d982f14dc35ce0360cb7bb28860405161066c91906110d1565b60405180910390a1505050505050505050565b6106876109ac565b600160008381526020019081526020016000206040518060c001604052908160008201548152602001600182015481526020016002820154815260200160038201548152602001600482015481526020016005820154815250509050919050565b337f000000000000000000000000000000000000000000000000000000000000000073ffffffffffffffffffffffffffffffffffffffff168173ffffffffffffffffffffffffffffffffffffffff1614610777576040517f08c379a000000000000000000000000000000000000000000000000000000000815260040161076e90610ff6565b60405180910390fd5b60088251146107bb576040517f08c379a00000000000000000000000000000000000000000000000000000000081526004016107b290611096565b60405180910390fd5b6000806000858152602001908152602001600020905083816000018190555060005b83518110156108df576001826002016000868481518110610827577f4e487b7100000000000000000000000000000000000000000000000000000000600052603260045260246000fd5b6020026020010151815260200190815260200160002060006101000a81548160ff02191690831515021790555060026000858381518110610891577f4e487b7100000000000000000000000000000000000000000000000000000000600052603260045260246000fd5b60200260200101518152602001908152602001600020859080600181540180825580915050600190039060005260206000200160009091909190915055806108d890611208565b90506107dd565b507f113d32d0b7aec15a8c7f50af4cb42f4695e5b95524ed69519ac88d6c1f1f40f68460405161090f91906110d1565b60405180910390a150505050565b60606002600083815260200190815260200160002080548060200260200160405190810160405280929190818152602001828054801561097c57602002820191906000526020600020905b815481526020019060010190808311610968575b50505050509050919050565b7f000000000000000000000000000000000000000000000000000000000000000081565b6040518060c001604052806000815260200160008152602001600081526020016000815260200160008152602001600081525090565b60006109f56109f08461111d565b6110ec565b90508083825260208201905082856020860282011115610a1457600080fd5b60005b85811015610a445781610a2a8882610a78565b845260208401935060208301925050600181019050610a17565b5050509392505050565b600082601f830112610a5f57600080fd5b8135610a6f8482602086016109e2565b91505092915050565b600081359050610a87816112af565b92915050565b600060208284031215610a9f57600080fd5b6000610aad84828501610a78565b91505092915050565b60008060408385031215610ac957600080fd5b6000610ad785828601610a78565b925050602083013567ffffffffffffffff811115610af457600080fd5b610b0085828601610a4e565b9150509250929050565b600080600080600080600060e0888a031215610b2557600080fd5b6000610b338a828b01610a78565b9750506020610b448a828b01610a78565b9650506040610b558a828b01610a78565b9550506060610b668a828b01610a78565b9450506080610b778a828b01610a78565b93505060a0610b888a828b01610a78565b92505060c0610b998a828b01610a78565b91505092959891949750929550565b6000610bb48383610e63565b60c08301905092915050565b6000610bcc8383610f59565b60208301905092915050565b610be1816111cc565b82525050565b6000610bf282611169565b610bfc8185611199565b9350610c0783611149565b8060005b83811015610c38578151610c1f8882610ba8565b9750610c2a8361117f565b925050600181019050610c0b565b5085935050505092915050565b6000610c5082611174565b610c5a81856111aa565b9350610c6583611159565b8060005b83811015610c96578151610c7d8882610bc0565b9750610c888361118c565b925050600181019050610c69565b5085935050505092915050565b6000610cb06014836111bb565b91507f496e636f727265637420746f75726e616d656e740000000000000000000000006000830152602082019050919050565b6000610cf06015836111bb565b91507f596f7520617265206e6f7420746865206f776e657200000000000000000000006000830152602082019050919050565b6000610d306014836111bb565b91507f5032206e6f7420696e20746f75726e616d656e740000000000000000000000006000830152602082019050919050565b6000610d70600d836111bb565b91507f506c6179657273206572726f72000000000000000000000000000000000000006000830152602082019050919050565b6000610db06014836111bb565b91507f5031206e6f7420696e20746f75726e616d656e740000000000000000000000006000830152602082019050919050565b6000610df06016836111bb565b91507f57696e6e6572206973206e6f74206120706c61796572000000000000000000006000830152602082019050919050565b6000610e306013836111bb565b91507f4d7573742068617665203820706c6179657273000000000000000000000000006000830152602082019050919050565b60c082016000820151610e796000850182610f59565b506020820151610e8c6020850182610f59565b506040820151610e9f6040850182610f59565b506060820151610eb26060850182610f59565b506080820151610ec56080850182610f59565b5060a0820151610ed860a0850182610f59565b50505050565b60c082016000820151610ef46000850182610f59565b506020820151610f076020850182610f59565b506040820151610f1a6040850182610f59565b506060820151610f2d6060850182610f59565b506080820151610f406080850182610f59565b5060a0820151610f5360a0850182610f59565b50505050565b610f62816111fe565b82525050565b610f71816111fe565b82525050565b6000602082019050610f8c6000830184610bd8565b92915050565b60006020820190508181036000830152610fac8184610be7565b905092915050565b60006020820190508181036000830152610fce8184610c45565b905092915050565b60006020820190508181036000830152610fef81610ca3565b9050919050565b6000602082019050818103600083015261100f81610ce3565b9050919050565b6000602082019050818103600083015261102f81610d23565b9050919050565b6000602082019050818103600083015261104f81610d63565b9050919050565b6000602082019050818103600083015261106f81610da3565b9050919050565b6000602082019050818103600083015261108f81610de3565b9050919050565b600060208201905081810360008301526110af81610e23565b9050919050565b600060c0820190506110cb6000830184610ede565b92915050565b60006020820190506110e66000830184610f68565b92915050565b6000604051905081810181811067ffffffffffffffff8211171561111357611112611280565b5b8060405250919050565b600067ffffffffffffffff82111561113857611137611280565b5b602082029050602081019050919050565b6000819050602082019050919050565b6000819050602082019050919050565b600081519050919050565b600081519050919050565b6000602082019050919050565b6000602082019050919050565b600082825260208201905092915050565b600082825260208201905092915050565b600082825260208201905092915050565b60006111d7826111de565b9050919050565b600073ffffffffffffffffffffffffffffffffffffffff82169050919050565b6000819050919050565b6000611213826111fe565b91507fffffffffffffffffffffffffffffffffffffffffffffffffffffffffffffffff82141561124657611245611251565b5b600182019050919050565b7f4e487b7100000000000000000000000000000000000000000000000000000000600052601160045260246000fd5b7f4e487b7100000000000000000000000000000000000000000000000000000000600052604160045260246000fd5b6112b8816111fe565b81146112c357600080fd5b5056fea264697066735822122097a0e4e6fe45025403ef673c56d2588dd4032ae29cd8d5939f7e03d347f7fd2164736f6c63430008000033",
  "linkReferences": {},
  "deployedLinkReferences": {}
}